{
  "contractName": "Multisig",
  "abi": [
    {
      "inputs": [
        {
          "internalType": "address[]",
          "name": "_approvers",
          "type": "address[]"
        },
        {
          "internalType": "uint256",
          "name": "_quorum",
          "type": "uint256"
        }
      ],
      "payable": true,
      "stateMutability": "payable",
      "type": "constructor"
    },
    {
      "constant": true,
      "inputs": [
        {
          "internalType": "address",
          "name": "",
          "type": "address"
        },
        {
          "internalType": "uint256",
          "name": "",
          "type": "uint256"
        }
      ],
      "name": "approvals",
      "outputs": [
        {
          "internalType": "bool",
          "name": "",
          "type": "bool"
        }
      ],
      "payable": false,
      "stateMutability": "view",
      "type": "function"
    },
    {
      "constant": true,
      "inputs": [
        {
          "internalType": "uint256",
          "name": "",
          "type": "uint256"
        }
      ],
      "name": "approvers",
      "outputs": [
        {
          "internalType": "address",
          "name": "",
          "type": "address"
        }
      ],
      "payable": false,
      "stateMutability": "view",
      "type": "function"
    },
    {
      "constant": true,
      "inputs": [],
      "name": "nextId",
      "outputs": [
        {
          "internalType": "uint256",
          "name": "",
          "type": "uint256"
        }
      ],
      "payable": false,
      "stateMutability": "view",
      "type": "function"
    },
    {
      "constant": true,
      "inputs": [],
      "name": "quorum",
      "outputs": [
        {
          "internalType": "uint256",
          "name": "",
          "type": "uint256"
        }
      ],
      "payable": false,
      "stateMutability": "view",
      "type": "function"
    },
    {
      "constant": true,
      "inputs": [
        {
          "internalType": "uint256",
          "name": "",
          "type": "uint256"
        }
      ],
      "name": "transfers",
      "outputs": [
        {
          "internalType": "uint256",
          "name": "id",
          "type": "uint256"
        },
        {
          "internalType": "uint256",
          "name": "amount",
          "type": "uint256"
        },
        {
          "internalType": "address payable",
          "name": "to",
          "type": "address"
        },
        {
          "internalType": "uint256",
          "name": "approvals",
          "type": "uint256"
        },
        {
          "internalType": "bool",
          "name": "sent",
          "type": "bool"
        }
      ],
      "payable": false,
      "stateMutability": "view",
      "type": "function"
    },
    {
      "constant": false,
      "inputs": [
        {
          "internalType": "uint256",
          "name": "amount",
          "type": "uint256"
        },
        {
          "internalType": "address payable",
          "name": "to",
          "type": "address"
        }
      ],
      "name": "createTransfer",
      "outputs": [],
      "payable": false,
      "stateMutability": "nonpayable",
      "type": "function"
    },
    {
      "constant": false,
      "inputs": [
        {
          "internalType": "uint256",
          "name": "id",
          "type": "uint256"
        }
      ],
      "name": "sendTransfer",
      "outputs": [],
      "payable": false,
      "stateMutability": "nonpayable",
      "type": "function"
    }
  ],
  "bytecode": "0x6080604052604051610b15380380610b158339818101604052604081101561002657600080fd5b810190808051604051939291908464010000000082111561004657600080fd5b8382019150602082018581111561005c57600080fd5b825186602082028301116401000000008211171561007957600080fd5b8083526020830192505050908051906020019060200280838360005b838110156100b0578082015181840152602081019050610095565b505050509050016040526020018051906020019092919050505081600090805190602001906100e09291906100ef565b508060018190555050506101bc565b828054828255906000526020600020908101928215610168579160200282015b828111156101675782518260006101000a81548173ffffffffffffffffffffffffffffffffffffffff021916908373ffffffffffffffffffffffffffffffffffffffff1602179055509160200191906001019061010f565b5b5090506101759190610179565b5090565b6101b991905b808211156101b557600081816101000a81549073ffffffffffffffffffffffffffffffffffffffff02191690555060010161017f565b5090565b90565b61094a806101cb6000396000f3fe608060405234801561001057600080fd5b506004361061007d5760003560e01c80639377d7111161005b5780639377d7111461010c578063d1c68d1e1461019a578063d3650fb8146101c8578063ffabc673146102365761007d565b80631703a018146100825780634c12fa47146100a057806361b8ce8c146100ee575b600080fd5b61008a61029c565b6040518082815260200191505060405180910390f35b6100ec600480360360408110156100b657600080fd5b8101908080359060200190929190803573ffffffffffffffffffffffffffffffffffffffff1690602001909291905050506102a2565b005b6100f66104a6565b6040518082815260200191505060405180910390f35b6101386004803603602081101561012257600080fd5b81019080803590602001909291905050506104ac565b604051808681526020018581526020018473ffffffffffffffffffffffffffffffffffffffff1673ffffffffffffffffffffffffffffffffffffffff168152602001838152602001821515151581526020019550505050505060405180910390f35b6101c6600480360360208110156101b057600080fd5b810190808035906020019092919050505061050f565b005b6101f4600480360360208110156101de57600080fd5b81019080803590602001909291905050506108aa565b604051808273ffffffffffffffffffffffffffffffffffffffff1673ffffffffffffffffffffffffffffffffffffffff16815260200191505060405180910390f35b6102826004803603604081101561024c57600080fd5b81019080803573ffffffffffffffffffffffffffffffffffffffff169060200190929190803590602001909291905050506108e6565b604051808215151515815260200191505060405180910390f35b60015481565b600080905060005b600080549050811015610334573373ffffffffffffffffffffffffffffffffffffffff16600082815481106102db57fe5b9060005260206000200160009054906101000a900473ffffffffffffffffffffffffffffffffffffffff1673ffffffffffffffffffffffffffffffffffffffff16141561032757600191505b80806001019150506102aa565b5060011515811515146103af576040517f08c379a00000000000000000000000000000000000000000000000000000000081526004018080602001828103825260158152602001807f6f6e6c7920617070726f76657220616c6c6f776564000000000000000000000081525060200191505060405180910390fd5b6040518060a0016040528060035481526020018481526020018373ffffffffffffffffffffffffffffffffffffffff1681526020016000815260200160001515815250600260006003548152602001908152602001600020600082015181600001556020820151816001015560408201518160020160006101000a81548173ffffffffffffffffffffffffffffffffffffffff021916908373ffffffffffffffffffffffffffffffffffffffff1602179055506060820151816003015560808201518160040160006101000a81548160ff021916908315150217905550905050600360008154809291906001019190505550505050565b60035481565b60026020528060005260406000206000915090508060000154908060010154908060020160009054906101000a900473ffffffffffffffffffffffffffffffffffffffff16908060030154908060040160009054906101000a900460ff16905085565b600080905060005b6000805490508110156105a1573373ffffffffffffffffffffffffffffffffffffffff166000828154811061054857fe5b9060005260206000200160009054906101000a900473ffffffffffffffffffffffffffffffffffffffff1673ffffffffffffffffffffffffffffffffffffffff16141561059457600191505b8080600101915050610517565b50600115158115151461061c576040517f08c379a00000000000000000000000000000000000000000000000000000000081526004018080602001828103825260158152602001807f6f6e6c7920617070726f76657220616c6c6f776564000000000000000000000081525060200191505060405180910390fd5b600015156002600084815260200190815260200160002060040160009054906101000a900460ff161515146106b9576040517f08c379a000000000000000000000000000000000000000000000000000000000815260040180806020018281038252601e8152602001807f7472616e736665722068617320616c7265616479206265656e2073656e74000081525060200191505060405180910390fd5b60001515600460003373ffffffffffffffffffffffffffffffffffffffff1673ffffffffffffffffffffffffffffffffffffffff168152602001908152602001600020600084815260200190815260200160002060009054906101000a900460ff16151514156107b3576001600460003373ffffffffffffffffffffffffffffffffffffffff1673ffffffffffffffffffffffffffffffffffffffff168152602001908152602001600020600084815260200190815260200160002060006101000a81548160ff02191690831515021790555060026000838152602001908152602001600020600301600081548092919060010191905055505b6001546002600084815260200190815260200160002060030154106108a55760016002600084815260200190815260200160002060040160006101000a81548160ff02191690831515021790555060006002600084815260200190815260200160002060020160009054906101000a900473ffffffffffffffffffffffffffffffffffffffff1690506000600260008581526020019081526020016000206001015490508173ffffffffffffffffffffffffffffffffffffffff166108fc829081150290604051600060405180830381858888f1935050505015801561089d573d6000803e3d6000fd5b5050506108a6565b5b5050565b600081815481106108b757fe5b906000526020600020016000915054906101000a900473ffffffffffffffffffffffffffffffffffffffff1681565b60046020528160005260406000206020528060005260406000206000915091509054906101000a900460ff168156fea265627a7a72315820702f1d9a9706bdcc82be6f2fb21b26cd6a6774559e8d531957e4d8fcb3cdb4d364736f6c63430005100032",
  "source": "pragma solidity >=0.4.0 <0.7.0;\n\ncontract Multisig {\n  address[] public approvers;\n  uint public quorum;\n  struct Transfer {\n    uint id;\n    uint amount;\n    address payable to;\n    uint approvals;\n    bool sent;\n  }\n  mapping(uint => Transfer) public transfers;\n  uint public nextId;\n  mapping(address => mapping(uint => bool)) public approvals;\n\n  constructor(address[] memory _approvers, uint _quorum) payable public {\n    approvers = _approvers;\n    quorum = _quorum;\n  }\n\n  function createTransfer(uint amount, address payable to) onlyApprover() external {\n    transfers[nextId] = Transfer(\n      nextId,\n      amount,\n      to,\n      0,\n      false\n    );\n    nextId++;\n  }\n\n  function sendTransfer(uint id) onlyApprover() external {\n    require(transfers[id].sent == false, 'transfer has already been sent');\n    //BUG CORRECTION: this was put at the end of function in smart-contract part. Here is the correct place\n    if(approvals[msg.sender][id] == false) {\n      approvals[msg.sender][id] = true;\n      transfers[id].approvals++;\n    }\n    if(transfers[id].approvals >= quorum) {\n      transfers[id].sent = true;\n      address payable to = transfers[id].to;\n      uint amount = transfers[id].amount;\n      to.transfer(amount);\n      return;\n    }\n  }\n\n  modifier onlyApprover() {\n    bool allowed = false;\n    for(uint i; i < approvers.length; i++) {\n      if(approvers[i] == msg.sender) {\n        allowed = true;\n      }\n    }\n    require(allowed == true, 'only approver allowed');\n    _;\n  }\n}\n",
  "sourcePath": "/var/www/html/eattheblocks-pro-master/vueDap30/day13_multisig_wallet/contracts/Multisig.sol",
  "compiler": {
    "name": "solc",
    "version": "0.5.16+commit.9c3226ce.Emscripten.clang"
  },
  "schemaVersion": "3.3.3",
  "updatedAt": "2021-01-27T14:25:06.169Z",
  "networkType": "ethereum",
  "devdoc": {
    "methods": {}
  },
  "userdoc": {
    "methods": {}
  }
}